{
  "_format": "hh-sol-artifact-1",
  "contractName": "ChainBattles",
  "sourceName": "contracts/ChainBattles.sol",
  "abi": [
    {
      "inputs": [],
      "stateMutability": "nonpayable",
      "type": "constructor"
    },
    {
      "inputs": [],
      "name": "InvalidTokenId",
      "type": "error"
    },
    {
      "inputs": [],
      "name": "NotOwner",
      "type": "error"
    },
    {
      "anonymous": false,
      "inputs": [
        {
          "indexed": true,
          "internalType": "address",
          "name": "owner",
          "type": "address"
        },
        {
          "indexed": true,
          "internalType": "address",
          "name": "approved",
          "type": "address"
        },
        {
          "indexed": true,
          "internalType": "uint256",
          "name": "tokenId",
          "type": "uint256"
        }
      ],
      "name": "Approval",
      "type": "event"
    },
    {
      "anonymous": false,
      "inputs": [
        {
          "indexed": true,
          "internalType": "address",
          "name": "owner",
          "type": "address"
        },
        {
          "indexed": true,
          "internalType": "address",
          "name": "operator",
          "type": "address"
        },
        {
          "indexed": false,
          "internalType": "bool",
          "name": "approved",
          "type": "bool"
        }
      ],
      "name": "ApprovalForAll",
      "type": "event"
    },
    {
      "anonymous": false,
      "inputs": [
        {
          "indexed": true,
          "internalType": "address",
          "name": "owner",
          "type": "address"
        },
        {
          "indexed": false,
          "internalType": "uint256",
          "name": "tokenId",
          "type": "uint256"
        },
        {
          "indexed": false,
          "internalType": "string",
          "name": "tokenUri",
          "type": "string"
        }
      ],
      "name": "NewMint",
      "type": "event"
    },
    {
      "anonymous": false,
      "inputs": [
        {
          "indexed": true,
          "internalType": "address",
          "name": "owner",
          "type": "address"
        },
        {
          "indexed": false,
          "internalType": "uint256",
          "name": "tokenId",
          "type": "uint256"
        },
        {
          "indexed": false,
          "internalType": "string",
          "name": "tokenUri",
          "type": "string"
        }
      ],
      "name": "Trained",
      "type": "event"
    },
    {
      "anonymous": false,
      "inputs": [
        {
          "indexed": true,
          "internalType": "address",
          "name": "from",
          "type": "address"
        },
        {
          "indexed": true,
          "internalType": "address",
          "name": "to",
          "type": "address"
        },
        {
          "indexed": true,
          "internalType": "uint256",
          "name": "tokenId",
          "type": "uint256"
        }
      ],
      "name": "Transfer",
      "type": "event"
    },
    {
      "inputs": [
        {
          "internalType": "address",
          "name": "to",
          "type": "address"
        },
        {
          "internalType": "uint256",
          "name": "tokenId",
          "type": "uint256"
        }
      ],
      "name": "approve",
      "outputs": [],
      "stateMutability": "nonpayable",
      "type": "function"
    },
    {
      "inputs": [
        {
          "internalType": "address",
          "name": "owner",
          "type": "address"
        }
      ],
      "name": "balanceOf",
      "outputs": [
        {
          "internalType": "uint256",
          "name": "",
          "type": "uint256"
        }
      ],
      "stateMutability": "view",
      "type": "function"
    },
    {
      "inputs": [
        {
          "internalType": "uint256",
          "name": "",
          "type": "uint256"
        }
      ],
      "name": "classes",
      "outputs": [
        {
          "internalType": "string",
          "name": "",
          "type": "string"
        }
      ],
      "stateMutability": "view",
      "type": "function"
    },
    {
      "inputs": [
        {
          "internalType": "uint256",
          "name": "tokenId",
          "type": "uint256"
        }
      ],
      "name": "generateCharacter",
      "outputs": [
        {
          "internalType": "string",
          "name": "",
          "type": "string"
        }
      ],
      "stateMutability": "view",
      "type": "function"
    },
    {
      "inputs": [
        {
          "internalType": "uint256",
          "name": "tokenId",
          "type": "uint256"
        }
      ],
      "name": "getApproved",
      "outputs": [
        {
          "internalType": "address",
          "name": "",
          "type": "address"
        }
      ],
      "stateMutability": "view",
      "type": "function"
    },
    {
      "inputs": [
        {
          "internalType": "uint256",
          "name": "tokenId",
          "type": "uint256"
        }
      ],
      "name": "getStat",
      "outputs": [
        {
          "components": [
            {
              "internalType": "string",
              "name": "class",
              "type": "string"
            },
            {
              "internalType": "uint256",
              "name": "level",
              "type": "uint256"
            },
            {
              "internalType": "uint256",
              "name": "hp",
              "type": "uint256"
            },
            {
              "internalType": "uint256",
              "name": "mp",
              "type": "uint256"
            },
            {
              "internalType": "uint256",
              "name": "str",
              "type": "uint256"
            },
            {
              "internalType": "uint256",
              "name": "mag",
              "type": "uint256"
            },
            {
              "internalType": "uint256",
              "name": "agi",
              "type": "uint256"
            }
          ],
          "internalType": "struct ChainBattles.Stat",
          "name": "",
          "type": "tuple"
        }
      ],
      "stateMutability": "view",
      "type": "function"
    },
    {
      "inputs": [
        {
          "internalType": "uint256",
          "name": "tokenId",
          "type": "uint256"
        }
      ],
      "name": "getTokenURI",
      "outputs": [
        {
          "internalType": "string",
          "name": "",
          "type": "string"
        }
      ],
      "stateMutability": "view",
      "type": "function"
    },
    {
      "inputs": [
        {
          "internalType": "address",
          "name": "owner",
          "type": "address"
        },
        {
          "internalType": "address",
          "name": "operator",
          "type": "address"
        }
      ],
      "name": "isApprovedForAll",
      "outputs": [
        {
          "internalType": "bool",
          "name": "",
          "type": "bool"
        }
      ],
      "stateMutability": "view",
      "type": "function"
    },
    {
      "inputs": [],
      "name": "mint",
      "outputs": [],
      "stateMutability": "nonpayable",
      "type": "function"
    },
    {
      "inputs": [],
      "name": "name",
      "outputs": [
        {
          "internalType": "string",
          "name": "",
          "type": "string"
        }
      ],
      "stateMutability": "view",
      "type": "function"
    },
    {
      "inputs": [
        {
          "internalType": "uint256",
          "name": "tokenId",
          "type": "uint256"
        }
      ],
      "name": "ownerOf",
      "outputs": [
        {
          "internalType": "address",
          "name": "",
          "type": "address"
        }
      ],
      "stateMutability": "view",
      "type": "function"
    },
    {
      "inputs": [
        {
          "internalType": "address",
          "name": "from",
          "type": "address"
        },
        {
          "internalType": "address",
          "name": "to",
          "type": "address"
        },
        {
          "internalType": "uint256",
          "name": "tokenId",
          "type": "uint256"
        }
      ],
      "name": "safeTransferFrom",
      "outputs": [],
      "stateMutability": "nonpayable",
      "type": "function"
    },
    {
      "inputs": [
        {
          "internalType": "address",
          "name": "from",
          "type": "address"
        },
        {
          "internalType": "address",
          "name": "to",
          "type": "address"
        },
        {
          "internalType": "uint256",
          "name": "tokenId",
          "type": "uint256"
        },
        {
          "internalType": "bytes",
          "name": "data",
          "type": "bytes"
        }
      ],
      "name": "safeTransferFrom",
      "outputs": [],
      "stateMutability": "nonpayable",
      "type": "function"
    },
    {
      "inputs": [
        {
          "internalType": "address",
          "name": "operator",
          "type": "address"
        },
        {
          "internalType": "bool",
          "name": "approved",
          "type": "bool"
        }
      ],
      "name": "setApprovalForAll",
      "outputs": [],
      "stateMutability": "nonpayable",
      "type": "function"
    },
    {
      "inputs": [
        {
          "internalType": "bytes4",
          "name": "interfaceId",
          "type": "bytes4"
        }
      ],
      "name": "supportsInterface",
      "outputs": [
        {
          "internalType": "bool",
          "name": "",
          "type": "bool"
        }
      ],
      "stateMutability": "view",
      "type": "function"
    },
    {
      "inputs": [],
      "name": "symbol",
      "outputs": [
        {
          "internalType": "string",
          "name": "",
          "type": "string"
        }
      ],
      "stateMutability": "view",
      "type": "function"
    },
    {
      "inputs": [
        {
          "internalType": "uint256",
          "name": "",
          "type": "uint256"
        }
      ],
      "name": "tokenIdtoStat",
      "outputs": [
        {
          "internalType": "string",
          "name": "class",
          "type": "string"
        },
        {
          "internalType": "uint256",
          "name": "level",
          "type": "uint256"
        },
        {
          "internalType": "uint256",
          "name": "hp",
          "type": "uint256"
        },
        {
          "internalType": "uint256",
          "name": "mp",
          "type": "uint256"
        },
        {
          "internalType": "uint256",
          "name": "str",
          "type": "uint256"
        },
        {
          "internalType": "uint256",
          "name": "mag",
          "type": "uint256"
        },
        {
          "internalType": "uint256",
          "name": "agi",
          "type": "uint256"
        }
      ],
      "stateMutability": "view",
      "type": "function"
    },
    {
      "inputs": [
        {
          "internalType": "uint256",
          "name": "tokenId",
          "type": "uint256"
        }
      ],
      "name": "tokenURI",
      "outputs": [
        {
          "internalType": "string",
          "name": "",
          "type": "string"
        }
      ],
      "stateMutability": "view",
      "type": "function"
    },
    {
      "inputs": [
        {
          "internalType": "uint256",
          "name": "tokenId",
          "type": "uint256"
        }
      ],
      "name": "train",
      "outputs": [],
      "stateMutability": "nonpayable",
      "type": "function"
    },
    {
      "inputs": [
        {
          "internalType": "address",
          "name": "from",
          "type": "address"
        },
        {
          "internalType": "address",
          "name": "to",
          "type": "address"
        },
        {
          "internalType": "uint256",
          "name": "tokenId",
          "type": "uint256"
        }
      ],
      "name": "transferFrom",
      "outputs": [],
      "stateMutability": "nonpayable",
      "type": "function"
    }
  ],
  "bytecode": "0x60806040526040518060a001604052806040518060400160405280600881526020017f53776f72646d616e00000000000000000000000000000000000000000000000081525081526020016040518060400160405280600481526020017f4d6167650000000000000000000000000000000000000000000000000000000081525081526020016040518060400160405280600681526020017f4b6e69676874000000000000000000000000000000000000000000000000000081525081526020016040518060400160405280600581526020017f546869656600000000000000000000000000000000000000000000000000000081525081526020016040518060400160405280600781526020017f41636f6c79746500000000000000000000000000000000000000000000000000815250815250600890600562000146929190620001fb565b503480156200015457600080fd5b506040518060400160405280600d81526020017f436861696e20426174746c6573000000000000000000000000000000000000008152506040518060400160405280600581526020017f4342544c530000000000000000000000000000000000000000000000000000008152508160009080519060200190620001d992919062000262565b508060019080519060200190620001f292919062000262565b505050620003e5565b8280548282559060005260206000209081019282156200024f579160200282015b828111156200024e5782518290805190602001906200023d92919062000262565b50916020019190600101906200021c565b5b5090506200025e9190620002f3565b5090565b8280546200027090620003af565b90600052602060002090601f016020900481019282620002945760008555620002e0565b82601f10620002af57805160ff1916838001178555620002e0565b82800160010185558215620002e0579182015b82811115620002df578251825591602001919060010190620002c2565b5b509050620002ef91906200031b565b5090565b5b808211156200031757600081816200030d91906200033a565b50600101620002f4565b5090565b5b80821115620003365760008160009055506001016200031c565b5090565b5080546200034890620003af565b6000825580601f106200035c57506200037d565b601f0160209004906000526020600020908101906200037c91906200031b565b5b50565b7f4e487b7100000000000000000000000000000000000000000000000000000000600052602260045260246000fd5b60006002820490506001821680620003c857607f821691505b60208210811415620003df57620003de62000380565b5b50919050565b61512080620003f56000396000f3fe608060405234801561001057600080fd5b506004361061012c5760003560e01c806342842e0e116100ad5780639840595d116100715780639840595d14610367578063a22cb4651461039d578063b88d4fde146103b9578063c87b56dd146103d5578063e985e9c5146104055761012c565b806342842e0e1461029d5780636352211e146102b957806370a08231146102e9578063817dbe9f1461031957806395d89b41146103495761012c565b80631249c58b116100f45780631249c58b146101fb578063176094591461020557806323b872dd14610235578063368004ed146102515780633bb3a24d1461026d5761012c565b806301ffc9a71461013157806306fdde0314610161578063081812fc1461017f578063095ea7b3146101af5780630daefed5146101cb575b600080fd5b61014b60048036038101906101469190612c10565b610435565b6040516101589190612c58565b60405180910390f35b610169610517565b6040516101769190612d0c565b60405180910390f35b61019960048036038101906101949190612d64565b6105a9565b6040516101a69190612dd2565b60405180910390f35b6101c960048036038101906101c49190612e19565b6105ef565b005b6101e560048036038101906101e09190612d64565b610707565b6040516101f29190612d0c565b60405180910390f35b6102036107ed565b005b61021f600480360381019061021a9190612d64565b610883565b60405161022c9190612f4e565b60405180910390f35b61024f600480360381019061024a9190612f70565b61097e565b005b61026b60048036038101906102669190612d64565b6109de565b005b61028760048036038101906102829190612d64565b610afe565b6040516102949190612d0c565b60405180910390f35b6102b760048036038101906102b29190612f70565b610bf8565b005b6102d360048036038101906102ce9190612d64565b610c18565b6040516102e09190612dd2565b60405180910390f35b61030360048036038101906102fe9190612fc3565b610cca565b6040516103109190612fff565b60405180910390f35b610333600480360381019061032e9190612d64565b610d82565b6040516103409190612d0c565b60405180910390f35b610351610e2e565b60405161035e9190612d0c565b60405180910390f35b610381600480360381019061037c9190612d64565b610ec0565b604051610394979695949392919061301a565b60405180910390f35b6103b760048036038101906103b291906130bc565b610f8a565b005b6103d360048036038101906103ce9190613231565b610fa0565b005b6103ef60048036038101906103ea9190612d64565b611002565b6040516103fc9190612d0c565b60405180910390f35b61041f600480360381019061041a91906132b4565b611115565b60405161042c9190612c58565b60405180910390f35b60007f80ac58cd000000000000000000000000000000000000000000000000000000007bffffffffffffffffffffffffffffffffffffffffffffffffffffffff1916827bffffffffffffffffffffffffffffffffffffffffffffffffffffffff1916148061050057507f5b5e139f000000000000000000000000000000000000000000000000000000007bffffffffffffffffffffffffffffffffffffffffffffffffffffffff1916827bffffffffffffffffffffffffffffffffffffffffffffffffffffffff1916145b80610510575061050f826111a9565b5b9050919050565b60606000805461052690613323565b80601f016020809104026020016040519081016040528092919081815260200182805461055290613323565b801561059f5780601f106105745761010080835404028352916020019161059f565b820191906000526020600020905b81548152906001019060200180831161058257829003601f168201915b5050505050905090565b60006105b482611213565b6004600083815260200190815260200160002060009054906101000a900473ffffffffffffffffffffffffffffffffffffffff169050919050565b60006105fa82610c18565b90508073ffffffffffffffffffffffffffffffffffffffff168373ffffffffffffffffffffffffffffffffffffffff16141561066b576040517f08c379a0000000000000000000000000000000000000000000000000000000008152600401610662906133c7565b60405180910390fd5b8073ffffffffffffffffffffffffffffffffffffffff1661068a61125e565b73ffffffffffffffffffffffffffffffffffffffff1614806106b957506106b8816106b361125e565b611115565b5b6106f8576040517f08c379a00000000000000000000000000000000000000000000000000000000081526004016106ef90613459565b60405180910390fd5b6107028383611266565b505050565b6060600061071483610883565b6000015161072d61072485610883565b6020015161131f565b61074261073986610883565b6040015161131f565b61075761074e87610883565b6060015161131f565b61076c61076388610883565b6080015161131f565b61078161077889610883565b60a0015161131f565b61079661078d8a610883565b60c0015161131f565b6040516020016107ac9796959493929190613d05565b60405160208183030381529060405290506107c681611480565b6040516020016107d69190613ebe565b604051602081830303815290604052915050919050565b6107f760076115e4565b600061080360076115fa565b905061080f3382611608565b61081881611626565b600061082382610afe565b905061082f82826118a8565b3373ffffffffffffffffffffffffffffffffffffffff167f3e316b9357d5845154ae758d6a95ac942edaac9a6f0ed10960007b0a3a6426308383604051610877929190613ee0565b60405180910390a25050565b61088b612ac4565b600960008381526020019081526020016000206040518060e00160405290816000820180546108b990613323565b80601f01602080910402602001604051908101604052809291908181526020018280546108e590613323565b80156109325780601f1061090757610100808354040283529160200191610932565b820191906000526020600020905b81548152906001019060200180831161091557829003601f168201915b5050505050815260200160018201548152602001600282015481526020016003820154815260200160048201548152602001600582015481526020016006820154815250509050919050565b61098f61098961125e565b8261191c565b6109ce576040517f08c379a00000000000000000000000000000000000000000000000000000000081526004016109c590613f82565b60405180910390fd5b6109d98383836119b1565b505050565b6109e781611c18565b610a1d576040517f3f6cc76800000000000000000000000000000000000000000000000000000000815260040160405180910390fd5b3373ffffffffffffffffffffffffffffffffffffffff16610a3d82610c18565b73ffffffffffffffffffffffffffffffffffffffff1614610a8a576040517f30cd747100000000000000000000000000000000000000000000000000000000815260040160405180910390fd5b610a9381611c84565b6000610a9e82610afe565b9050610aaa82826118a8565b3373ffffffffffffffffffffffffffffffffffffffff167f8b3e7bbc0382ea0bddf5b2644657a99b26879a5f8334499a062b0bc199955c398383604051610af2929190613ee0565b60405180910390a25050565b60606000610b0b8361131f565b610b1484610707565b610b1d85610883565b60000151610b36610b2d87610883565b6020015161131f565b610b4b610b4288610883565b6040015161131f565b610b60610b5789610883565b6060015161131f565b610b75610b6c8a610883565b6080015161131f565b610b8a610b818b610883565b60a0015161131f565b610b9f610b968c610883565b60c0015161131f565b604051602001610bb799989796959493929190614520565b6040516020818303038152906040529050610bd181611480565b604051602001610be191906147cf565b604051602081830303815290604052915050919050565b610c1383838360405180602001604052806000815250610fa0565b505050565b6000806002600084815260200190815260200160002060009054906101000a900473ffffffffffffffffffffffffffffffffffffffff169050600073ffffffffffffffffffffffffffffffffffffffff168173ffffffffffffffffffffffffffffffffffffffff161415610cc1576040517f08c379a0000000000000000000000000000000000000000000000000000000008152600401610cb89061483d565b60405180910390fd5b80915050919050565b60008073ffffffffffffffffffffffffffffffffffffffff168273ffffffffffffffffffffffffffffffffffffffff161415610d3b576040517f08c379a0000000000000000000000000000000000000000000000000000000008152600401610d32906148cf565b60405180910390fd5b600360008373ffffffffffffffffffffffffffffffffffffffff1673ffffffffffffffffffffffffffffffffffffffff168152602001908152602001600020549050919050565b60088181548110610d9257600080fd5b906000526020600020016000915090508054610dad90613323565b80601f0160208091040260200160405190810160405280929190818152602001828054610dd990613323565b8015610e265780601f10610dfb57610100808354040283529160200191610e26565b820191906000526020600020905b815481529060010190602001808311610e0957829003601f168201915b505050505081565b606060018054610e3d90613323565b80601f0160208091040260200160405190810160405280929190818152602001828054610e6990613323565b8015610eb65780601f10610e8b57610100808354040283529160200191610eb6565b820191906000526020600020905b815481529060010190602001808311610e9957829003601f168201915b5050505050905090565b6009602052806000526040600020600091509050806000018054610ee390613323565b80601f0160208091040260200160405190810160405280929190818152602001828054610f0f90613323565b8015610f5c5780601f10610f3157610100808354040283529160200191610f5c565b820191906000526020600020905b815481529060010190602001808311610f3f57829003601f168201915b5050505050908060010154908060020154908060030154908060040154908060050154908060060154905087565b610f9c610f9561125e565b8383611dc6565b5050565b610fb1610fab61125e565b8361191c565b610ff0576040517f08c379a0000000000000000000000000000000000000000000000000000000008152600401610fe790613f82565b60405180910390fd5b610ffc84848484611f33565b50505050565b606061100d82611213565b600060066000848152602001908152602001600020805461102d90613323565b80601f016020809104026020016040519081016040528092919081815260200182805461105990613323565b80156110a65780601f1061107b576101008083540402835291602001916110a6565b820191906000526020600020905b81548152906001019060200180831161108957829003601f168201915b5050505050905060006110b7611f8f565b90506000815114156110cd578192505050611110565b6000825111156111025780826040516020016110ea9291906148ef565b60405160208183030381529060405292505050611110565b61110b84611fa6565b925050505b919050565b6000600560008473ffffffffffffffffffffffffffffffffffffffff1673ffffffffffffffffffffffffffffffffffffffff16815260200190815260200160002060008373ffffffffffffffffffffffffffffffffffffffff1673ffffffffffffffffffffffffffffffffffffffff16815260200190815260200160002060009054906101000a900460ff16905092915050565b60007f01ffc9a7000000000000000000000000000000000000000000000000000000007bffffffffffffffffffffffffffffffffffffffffffffffffffffffff1916827bffffffffffffffffffffffffffffffffffffffffffffffffffffffff1916149050919050565b61121c81611c18565b61125b576040517f08c379a00000000000000000000000000000000000000000000000000000000081526004016112529061483d565b60405180910390fd5b50565b600033905090565b816004600083815260200190815260200160002060006101000a81548173ffffffffffffffffffffffffffffffffffffffff021916908373ffffffffffffffffffffffffffffffffffffffff160217905550808273ffffffffffffffffffffffffffffffffffffffff166112d983610c18565b73ffffffffffffffffffffffffffffffffffffffff167f8c5be1e5ebec7d5bd14f71427d1e84f3dd0314c0f7b2291e5b200ac8c7c3b92560405160405180910390a45050565b60606000821415611367576040518060400160405280600181526020017f3000000000000000000000000000000000000000000000000000000000000000815250905061147b565b600082905060005b6000821461139957808061138290614942565b915050600a8261139291906149ba565b915061136f565b60008167ffffffffffffffff8111156113b5576113b4613106565b5b6040519080825280601f01601f1916602001820160405280156113e75781602001600182028036833780820191505090505b5090505b600085146114745760018261140091906149eb565b9150600a8561140f9190614a1f565b603061141b9190614a50565b60f81b81838151811061143157611430614aa6565b5b60200101907effffffffffffffffffffffffffffffffffffffffffffffffffffffffffffff1916908160001a905350600a8561146d91906149ba565b94506113eb565b8093505050505b919050565b60606000825114156114a3576040518060200160405280600081525090506115df565b60006040518060600160405280604081526020016150ab60409139905060006003600285516114d29190614a50565b6114dc91906149ba565b60046114e89190614ad5565b67ffffffffffffffff81111561150157611500613106565b5b6040519080825280601f01601f1916602001820160405280156115335781602001600182028036833780820191505090505b509050600182016020820185865187015b8082101561159f576003820191508151603f8160121c168501518453600184019350603f81600c1c168501518453600184019350603f8160061c168501518453600184019350603f8116850151845360018401935050611544565b50506003865106600181146115bb57600281146115ce576115d6565b603d6001830353603d60028303536115d6565b603d60018303535b50505080925050505b919050565b6001816000016000828254019250508190555050565b600081600001549050919050565b61162282826040518060200160405280600081525061200e565b5050565b6000611630612069565b9050600060016005836116439190614a1f565b61164d9190614a50565b90506040518060e0016040528060086005856116699190614a1f565b8154811061167a57611679614aa6565b5b90600052602060002001805461168f90613323565b80601f01602080910402602001604051908101604052809291908181526020018280546116bb90613323565b80156117085780601f106116dd57610100808354040283529160200191611708565b820191906000526020600020905b8154815290600101906020018083116116eb57829003601f168201915b505050505081526020016001815260200160006002846117289190614a1f565b1461173f5760028361173a9190614a50565b61174d565b60008361174c9190614a50565b5b815260200160006002846117619190614a1f565b14611778576000836117739190614a50565b611786565b6001836117859190614a50565b5b8152602001600060028461179a9190614a1f565b146117b1576000836117ac9190614a50565b6117bf565b6001836117be9190614a50565b5b815260200160006002846117d39190614a1f565b146117ea576002836117e59190614a50565b6117f8565b6001836117f79190614a50565b5b8152602001600060028461180c9190614a1f565b146118235760018361181e9190614a50565b611831565b6000836118309190614a50565b5b815250600960008581526020019081526020016000206000820151816000019080519060200190611863929190612b01565b506020820151816001015560408201518160020155606082015181600301556080820151816004015560a0820151816005015560c08201518160060155905050505050565b6118b182611c18565b6118f0576040517f08c379a00000000000000000000000000000000000000000000000000000000081526004016118e790614ba1565b60405180910390fd5b80600660008481526020019081526020016000209080519060200190611917929190612b01565b505050565b60008061192883610c18565b90508073ffffffffffffffffffffffffffffffffffffffff168473ffffffffffffffffffffffffffffffffffffffff16148061196a57506119698185611115565b5b806119a857508373ffffffffffffffffffffffffffffffffffffffff16611990846105a9565b73ffffffffffffffffffffffffffffffffffffffff16145b91505092915050565b8273ffffffffffffffffffffffffffffffffffffffff166119d182610c18565b73ffffffffffffffffffffffffffffffffffffffff1614611a27576040517f08c379a0000000000000000000000000000000000000000000000000000000008152600401611a1e90614c33565b60405180910390fd5b600073ffffffffffffffffffffffffffffffffffffffff168273ffffffffffffffffffffffffffffffffffffffff161415611a97576040517f08c379a0000000000000000000000000000000000000000000000000000000008152600401611a8e90614cc5565b60405180910390fd5b611aa2838383612161565b611aad600082611266565b6001600360008573ffffffffffffffffffffffffffffffffffffffff1673ffffffffffffffffffffffffffffffffffffffff1681526020019081526020016000206000828254611afd91906149eb565b925050819055506001600360008473ffffffffffffffffffffffffffffffffffffffff1673ffffffffffffffffffffffffffffffffffffffff1681526020019081526020016000206000828254611b549190614a50565b92505081905550816002600083815260200190815260200160002060006101000a81548173ffffffffffffffffffffffffffffffffffffffff021916908373ffffffffffffffffffffffffffffffffffffffff160217905550808273ffffffffffffffffffffffffffffffffffffffff168473ffffffffffffffffffffffffffffffffffffffff167fddf252ad1be2c89b69c2b068fc378daa952ba7f163c4a11628f55a4df523b3ef60405160405180910390a4611c13838383612166565b505050565b60008073ffffffffffffffffffffffffffffffffffffffff166002600084815260200190815260200160002060009054906101000a900473ffffffffffffffffffffffffffffffffffffffff1673ffffffffffffffffffffffffffffffffffffffff1614159050919050565b6009600082815260200190815260200160002060010160008154611ca790614942565b919050819055506000611cb8612069565b905060006001600383611ccb9190614a1f565b611cd59190614a50565b905080600960008581526020019081526020016000206002016000828254611cfd9190614a50565b9250508190555080600960008581526020019081526020016000206003016000828254611d2a9190614a50565b9250508190555080600960008581526020019081526020016000206004016000828254611d579190614a50565b9250508190555080600960008581526020019081526020016000206005016000828254611d849190614a50565b9250508190555080600960008581526020019081526020016000206006016000828254611db19190614a50565b92505081905550611dc18361216b565b505050565b8173ffffffffffffffffffffffffffffffffffffffff168373ffffffffffffffffffffffffffffffffffffffff161415611e35576040517f08c379a0000000000000000000000000000000000000000000000000000000008152600401611e2c90614d31565b60405180910390fd5b80600560008573ffffffffffffffffffffffffffffffffffffffff1673ffffffffffffffffffffffffffffffffffffffff16815260200190815260200160002060008473ffffffffffffffffffffffffffffffffffffffff1673ffffffffffffffffffffffffffffffffffffffff16815260200190815260200160002060006101000a81548160ff0219169083151502179055508173ffffffffffffffffffffffffffffffffffffffff168373ffffffffffffffffffffffffffffffffffffffff167f17307eab39ab6107e8899845ad3d59bd9653f200f220920489ca2b5937696c3183604051611f269190612c58565b60405180910390a3505050565b611f3e8484846119b1565b611f4a848484846126d7565b611f89576040517f08c379a0000000000000000000000000000000000000000000000000000000008152600401611f8090614dc3565b60405180910390fd5b50505050565b606060405180602001604052806000815250905090565b6060611fb182611213565b6000611fbb611f8f565b90506000815111611fdb5760405180602001604052806000815250612006565b80611fe58461131f565b604051602001611ff69291906148ef565b6040516020818303038152906040525b915050919050565b612018838361286e565b61202560008484846126d7565b612064576040517f08c379a000000000000000000000000000000000000000000000000000000000815260040161205b90614dc3565b60405180910390fd5b505050565b60008043423360405160200161207f9190614e2b565b6040516020818303038152906040528051906020012060001c6120a291906149ba565b4542416040516020016120b59190614e81565b6040516020818303038152906040528051906020012060001c6120d891906149ba565b44426120e49190614a50565b6120ee9190614a50565b6120f89190614a50565b6121029190614a50565b61210c9190614a50565b60405160200161211c9190614ebd565b6040516020818303038152906040528051906020012060001c90506103e8808261214691906149ba565b6121509190614ad5565b8161215b91906149eb565b91505090565b505050565b505050565b61224860096000838152602001908152602001600020600001805461218f90613323565b80601f01602080910402602001604051908101604052809291908181526020018280546121bb90613323565b80156122085780601f106121dd57610100808354040283529160200191612208565b820191906000526020600020905b8154815290600101906020018083116121eb57829003601f168201915b50505050506040518060400160405280600881526020017f53776f72646d616e000000000000000000000000000000000000000000000000815250612a48565b156122805760026009600083815260200190815260200160002060040160008282546122749190614a50565b925050819055506126d4565b61235d6009600083815260200190815260200160002060000180546122a490613323565b80601f01602080910402602001604051908101604052809291908181526020018280546122d090613323565b801561231d5780601f106122f25761010080835404028352916020019161231d565b820191906000526020600020905b81548152906001019060200180831161230057829003601f168201915b50505050506040518060400160405280600481526020017f4d61676500000000000000000000000000000000000000000000000000000000815250612a48565b156123955760026009600083815260200190815260200160002060050160008282546123899190614a50565b925050819055506126d3565b6124726009600083815260200190815260200160002060000180546123b990613323565b80601f01602080910402602001604051908101604052809291908181526020018280546123e590613323565b80156124325780601f1061240757610100808354040283529160200191612432565b820191906000526020600020905b81548152906001019060200180831161241557829003601f168201915b50505050506040518060400160405280600681526020017f4b6e696768740000000000000000000000000000000000000000000000000000815250612a48565b156124aa57600260096000838152602001908152602001600020600201600082825461249e9190614a50565b925050819055506126d2565b6125876009600083815260200190815260200160002060000180546124ce90613323565b80601f01602080910402602001604051908101604052809291908181526020018280546124fa90613323565b80156125475780601f1061251c57610100808354040283529160200191612547565b820191906000526020600020905b81548152906001019060200180831161252a57829003601f168201915b50505050506040518060400160405280600581526020017f5468696566000000000000000000000000000000000000000000000000000000815250612a48565b156125bf5760026009600083815260200190815260200160002060060160008282546125b39190614a50565b925050819055506126d1565b61269c6009600083815260200190815260200160002060000180546125e390613323565b80601f016020809104026020016040519081016040528092919081815260200182805461260f90613323565b801561265c5780601f106126315761010080835404028352916020019161265c565b820191906000526020600020905b81548152906001019060200180831161263f57829003601f168201915b50505050506040518060400160405280600781526020017f41636f6c79746500000000000000000000000000000000000000000000000000815250612a48565b156126d05760026009600083815260200190815260200160002060030160008282546126c89190614a50565b925050819055505b5b5b5b5b50565b60006126f88473ffffffffffffffffffffffffffffffffffffffff16612aa1565b15612861578373ffffffffffffffffffffffffffffffffffffffff1663150b7a0261272161125e565b8786866040518563ffffffff1660e01b81526004016127439493929190614f2d565b602060405180830381600087803b15801561275d57600080fd5b505af192505050801561278e57506040513d601f19601f8201168201806040525081019061278b9190614f8e565b60015b612811573d80600081146127be576040519150601f19603f3d011682016040523d82523d6000602084013e6127c3565b606091505b50600081511415612809576040517f08c379a000000000000000000000000000000000000000000000000000000000815260040161280090614dc3565b60405180910390fd5b805181602001fd5b63150b7a0260e01b7bffffffffffffffffffffffffffffffffffffffffffffffffffffffff1916817bffffffffffffffffffffffffffffffffffffffffffffffffffffffff191614915050612866565b600190505b949350505050565b600073ffffffffffffffffffffffffffffffffffffffff168273ffffffffffffffffffffffffffffffffffffffff1614156128de576040517f08c379a00000000000000000000000000000000000000000000000000000000081526004016128d590615007565b60405180910390fd5b6128e781611c18565b15612927576040517f08c379a000000000000000000000000000000000000000000000000000000000815260040161291e90615073565b60405180910390fd5b61293360008383612161565b6001600360008473ffffffffffffffffffffffffffffffffffffffff1673ffffffffffffffffffffffffffffffffffffffff16815260200190815260200160002060008282546129839190614a50565b92505081905550816002600083815260200190815260200160002060006101000a81548173ffffffffffffffffffffffffffffffffffffffff021916908373ffffffffffffffffffffffffffffffffffffffff160217905550808273ffffffffffffffffffffffffffffffffffffffff16600073ffffffffffffffffffffffffffffffffffffffff167fddf252ad1be2c89b69c2b068fc378daa952ba7f163c4a11628f55a4df523b3ef60405160405180910390a4612a4460008383612166565b5050565b600081604051602001612a5b9190615093565b6040516020818303038152906040528051906020012083604051602001612a829190615093565b6040516020818303038152906040528051906020012014905092915050565b6000808273ffffffffffffffffffffffffffffffffffffffff163b119050919050565b6040518060e00160405280606081526020016000815260200160008152602001600081526020016000815260200160008152602001600081525090565b828054612b0d90613323565b90600052602060002090601f016020900481019282612b2f5760008555612b76565b82601f10612b4857805160ff1916838001178555612b76565b82800160010185558215612b76579182015b82811115612b75578251825591602001919060010190612b5a565b5b509050612b839190612b87565b5090565b5b80821115612ba0576000816000905550600101612b88565b5090565b6000604051905090565b600080fd5b600080fd5b60007fffffffff0000000000000000000000000000000000000000000000000000000082169050919050565b612bed81612bb8565b8114612bf857600080fd5b50565b600081359050612c0a81612be4565b92915050565b600060208284031215612c2657612c25612bae565b5b6000612c3484828501612bfb565b91505092915050565b60008115159050919050565b612c5281612c3d565b82525050565b6000602082019050612c6d6000830184612c49565b92915050565b600081519050919050565b600082825260208201905092915050565b60005b83811015612cad578082015181840152602081019050612c92565b83811115612cbc576000848401525b50505050565b6000601f19601f8301169050919050565b6000612cde82612c73565b612ce88185612c7e565b9350612cf8818560208601612c8f565b612d0181612cc2565b840191505092915050565b60006020820190508181036000830152612d268184612cd3565b905092915050565b6000819050919050565b612d4181612d2e565b8114612d4c57600080fd5b50565b600081359050612d5e81612d38565b92915050565b600060208284031215612d7a57612d79612bae565b5b6000612d8884828501612d4f565b91505092915050565b600073ffffffffffffffffffffffffffffffffffffffff82169050919050565b6000612dbc82612d91565b9050919050565b612dcc81612db1565b82525050565b6000602082019050612de76000830184612dc3565b92915050565b612df681612db1565b8114612e0157600080fd5b50565b600081359050612e1381612ded565b92915050565b60008060408385031215612e3057612e2f612bae565b5b6000612e3e85828601612e04565b9250506020612e4f85828601612d4f565b9150509250929050565b600082825260208201905092915050565b6000612e7582612c73565b612e7f8185612e59565b9350612e8f818560208601612c8f565b612e9881612cc2565b840191505092915050565b612eac81612d2e565b82525050565b600060e0830160008301518482036000860152612ecf8282612e6a565b9150506020830151612ee46020860182612ea3565b506040830151612ef76040860182612ea3565b506060830151612f0a6060860182612ea3565b506080830151612f1d6080860182612ea3565b5060a0830151612f3060a0860182612ea3565b5060c0830151612f4360c0860182612ea3565b508091505092915050565b60006020820190508181036000830152612f688184612eb2565b905092915050565b600080600060608486031215612f8957612f88612bae565b5b6000612f9786828701612e04565b9350506020612fa886828701612e04565b9250506040612fb986828701612d4f565b9150509250925092565b600060208284031215612fd957612fd8612bae565b5b6000612fe784828501612e04565b91505092915050565b612ff981612d2e565b82525050565b60006020820190506130146000830184612ff0565b92915050565b600060e0820190508181036000830152613034818a612cd3565b90506130436020830189612ff0565b6130506040830188612ff0565b61305d6060830187612ff0565b61306a6080830186612ff0565b61307760a0830185612ff0565b61308460c0830184612ff0565b98975050505050505050565b61309981612c3d565b81146130a457600080fd5b50565b6000813590506130b681613090565b92915050565b600080604083850312156130d3576130d2612bae565b5b60006130e185828601612e04565b92505060206130f2858286016130a7565b9150509250929050565b600080fd5b600080fd5b7f4e487b7100000000000000000000000000000000000000000000000000000000600052604160045260246000fd5b61313e82612cc2565b810181811067ffffffffffffffff8211171561315d5761315c613106565b5b80604052505050565b6000613170612ba4565b905061317c8282613135565b919050565b600067ffffffffffffffff82111561319c5761319b613106565b5b6131a582612cc2565b9050602081019050919050565b82818337600083830152505050565b60006131d46131cf84613181565b613166565b9050828152602081018484840111156131f0576131ef613101565b5b6131fb8482856131b2565b509392505050565b600082601f830112613218576132176130fc565b5b81356132288482602086016131c1565b91505092915050565b6000806000806080858703121561324b5761324a612bae565b5b600061325987828801612e04565b945050602061326a87828801612e04565b935050604061327b87828801612d4f565b925050606085013567ffffffffffffffff81111561329c5761329b612bb3565b5b6132a887828801613203565b91505092959194509250565b600080604083850312156132cb576132ca612bae565b5b60006132d985828601612e04565b92505060206132ea85828601612e04565b9150509250929050565b7f4e487b7100000000000000000000000000000000000000000000000000000000600052602260045260246000fd5b6000600282049050600182168061333b57607f821691505b6020821081141561334f5761334e6132f4565b5b50919050565b7f4552433732313a20617070726f76616c20746f2063757272656e74206f776e6560008201527f7200000000000000000000000000000000000000000000000000000000000000602082015250565b60006133b1602183612c7e565b91506133bc82613355565b604082019050919050565b600060208201905081810360008301526133e0816133a4565b9050919050565b7f4552433732313a20617070726f76652063616c6c6572206973206e6f7420746f60008201527f6b656e206f776e6572206e6f7220617070726f76656420666f7220616c6c0000602082015250565b6000613443603e83612c7e565b915061344e826133e7565b604082019050919050565b6000602082019050818103600083015261347281613436565b9050919050565b600081905092915050565b7f3c73766720786d6c6e733d22687474703a2f2f7777772e77332e6f72672f323060008201527f30302f73766722207072657365727665417370656374526174696f3d22784d6960208201527f6e594d696e206d656574222076696577426f783d22302030203335302033353060408201527f223e000000000000000000000000000000000000000000000000000000000000606082015250565b600061352c606283613479565b915061353782613484565b606282019050919050565b7f3c7374796c653e2e62617365207b2066696c6c3a2077686974653b20666f6e7460008201527f2d66616d696c793a2073657269663b20666f6e742d73697a653a20313470783b60208201527f207d3c2f7374796c653e00000000000000000000000000000000000000000000604082015250565b60006135c4604a83613479565b91506135cf82613542565b604a82019050919050565b7f3c726563742077696474683d223130302522206865696768743d22313030252260008201527f2066696c6c3d22626c61636b22202f3e00000000000000000000000000000000602082015250565b6000613636603083613479565b9150613641826135da565b603082019050919050565b7f3c7465787420783d223530252220793d223230252220636c6173733d2262617360008201527f652220646f6d696e616e742d626173656c696e653d226d6964646c652220746560208201527f78742d616e63686f723d226d6964646c65223e00000000000000000000000000604082015250565b60006136ce605383613479565b91506136d98261364c565b605382019050919050565b60006136ef82612c73565b6136f98185613479565b9350613709818560208601612c8f565b80840191505092915050565b7f3c2f746578743e00000000000000000000000000000000000000000000000000600082015250565b600061374b600783613479565b915061375682613715565b600782019050919050565b7f3c7465787420783d223530252220793d223330252220636c6173733d2262617360008201527f652220646f6d696e616e742d626173656c696e653d226d6964646c652220746560208201527f78742d616e63686f723d226d6964646c65223e00000000000000000000000000604082015250565b60006137e3605383613479565b91506137ee82613761565b605382019050919050565b7f4c6576656c3a2000000000000000000000000000000000000000000000000000600082015250565b600061382f600783613479565b915061383a826137f9565b600782019050919050565b7f3c7465787420783d223530252220793d223430252220636c6173733d2262617360008201527f652220646f6d696e616e742d626173656c696e653d226d6964646c652220746560208201527f78742d616e63686f723d226d6964646c65223e00000000000000000000000000604082015250565b60006138c7605383613479565b91506138d282613845565b605382019050919050565b7f48503a2000000000000000000000000000000000000000000000000000000000600082015250565b6000613913600483613479565b915061391e826138dd565b600482019050919050565b7f3c7465787420783d223530252220793d223530252220636c6173733d2262617360008201527f652220646f6d696e616e742d626173656c696e653d226d6964646c652220746560208201527f78742d616e63686f723d226d6964646c65223e00000000000000000000000000604082015250565b60006139ab605383613479565b91506139b682613929565b605382019050919050565b7f4d503a2000000000000000000000000000000000000000000000000000000000600082015250565b60006139f7600483613479565b9150613a02826139c1565b600482019050919050565b7f3c7465787420783d223530252220793d223630252220636c6173733d2262617360008201527f652220646f6d696e616e742d626173656c696e653d226d6964646c652220746560208201527f78742d616e63686f723d226d6964646c65223e00000000000000000000000000604082015250565b6000613a8f605383613479565b9150613a9a82613a0d565b605382019050919050565b7f5354523a20000000000000000000000000000000000000000000000000000000600082015250565b6000613adb600583613479565b9150613ae682613aa5565b600582019050919050565b7f3c7465787420783d223530252220793d223730252220636c6173733d2262617360008201527f652220646f6d696e616e742d626173656c696e653d226d6964646c652220746560208201527f78742d616e63686f723d226d6964646c65223e00000000000000000000000000604082015250565b6000613b73605383613479565b9150613b7e82613af1565b605382019050919050565b7f494e543a20000000000000000000000000000000000000000000000000000000600082015250565b6000613bbf600583613479565b9150613bca82613b89565b600582019050919050565b7f3c7465787420783d223530252220793d223830252220636c6173733d2262617360008201527f652220646f6d696e616e742d626173656c696e653d226d6964646c652220746560208201527f78742d616e63686f723d226d6964646c65223e00000000000000000000000000604082015250565b6000613c57605383613479565b9150613c6282613bd5565b605382019050919050565b7f4147493a20000000000000000000000000000000000000000000000000000000600082015250565b6000613ca3600583613479565b9150613cae82613c6d565b600582019050919050565b7f3c2f7376673e0000000000000000000000000000000000000000000000000000600082015250565b6000613cef600683613479565b9150613cfa82613cb9565b600682019050919050565b6000613d108261351f565b9150613d1b826135b7565b9150613d2682613629565b9150613d31826136c1565b9150613d3d828a6136e4565b9150613d488261373e565b9150613d53826137d6565b9150613d5e82613822565b9150613d6a82896136e4565b9150613d758261373e565b9150613d80826138ba565b9150613d8b82613906565b9150613d9782886136e4565b9150613da28261373e565b9150613dad8261399e565b9150613db8826139ea565b9150613dc482876136e4565b9150613dcf8261373e565b9150613dda82613a82565b9150613de582613ace565b9150613df182866136e4565b9150613dfc8261373e565b9150613e0782613b66565b9150613e1282613bb2565b9150613e1e82856136e4565b9150613e298261373e565b9150613e3482613c4a565b9150613e3f82613c96565b9150613e4b82846136e4565b9150613e568261373e565b9150613e6182613ce2565b915081905098975050505050505050565b7f646174613a696d6167652f7376672b786d6c3b6261736536342c000000000000600082015250565b6000613ea8601a83613479565b9150613eb382613e72565b601a82019050919050565b6000613ec982613e9b565b9150613ed582846136e4565b915081905092915050565b6000604082019050613ef56000830185612ff0565b8181036020830152613f078184612cd3565b90509392505050565b7f4552433732313a2063616c6c6572206973206e6f7420746f6b656e206f776e6560008201527f72206e6f7220617070726f766564000000000000000000000000000000000000602082015250565b6000613f6c602e83612c7e565b9150613f7782613f10565b604082019050919050565b60006020820190508181036000830152613f9b81613f5f565b9050919050565b7f7b00000000000000000000000000000000000000000000000000000000000000600082015250565b6000613fd8600183613479565b9150613fe382613fa2565b600182019050919050565b7f226e616d65223a2022436861696e20426174746c657320230000000000000000600082015250565b6000614024601883613479565b915061402f82613fee565b601882019050919050565b7f222c000000000000000000000000000000000000000000000000000000000000600082015250565b6000614070600283613479565b915061407b8261403a565b600282019050919050565b7f226465736372697074696f6e223a2022426174746c6573206f6e20636861696e60008201527f222c000000000000000000000000000000000000000000000000000000000000602082015250565b60006140e2602283613479565b91506140ed82614086565b602282019050919050565b7f22696d616765223a202200000000000000000000000000000000000000000000600082015250565b600061412e600a83613479565b9150614139826140f8565b600a82019050919050565b7f2261747472696275746573223a205b0000000000000000000000000000000000600082015250565b600061417a600f83613479565b915061418582614144565b600f82019050919050565b7f2274726169745f74797065223a2022436c617373222c00000000000000000000600082015250565b60006141c6601683613479565b91506141d182614190565b601682019050919050565b7f2276616c7565223a202200000000000000000000000000000000000000000000600082015250565b6000614212600a83613479565b915061421d826141dc565b600a82019050919050565b7f2200000000000000000000000000000000000000000000000000000000000000600082015250565b600061425e600183613479565b915061426982614228565b600182019050919050565b7f7d2c000000000000000000000000000000000000000000000000000000000000600082015250565b60006142aa600283613479565b91506142b582614274565b600282019050919050565b7f2274726169745f74797065223a20224c6576656c222c00000000000000000000600082015250565b60006142f6601683613479565b9150614301826142c0565b601682019050919050565b7f2274726169745f74797065223a20224850222c00000000000000000000000000600082015250565b6000614342601383613479565b915061434d8261430c565b601382019050919050565b7f2274726169745f74797065223a20224d50222c00000000000000000000000000600082015250565b600061438e601383613479565b915061439982614358565b601382019050919050565b7f2274726169745f74797065223a2022535452222c000000000000000000000000600082015250565b60006143da601483613479565b91506143e5826143a4565b601482019050919050565b7f2274726169745f74797065223a2022494e54222c000000000000000000000000600082015250565b6000614426601483613479565b9150614431826143f0565b601482019050919050565b7f2274726169745f74797065223a2022414749222c000000000000000000000000600082015250565b6000614472601483613479565b915061447d8261443c565b601482019050919050565b7f7d00000000000000000000000000000000000000000000000000000000000000600082015250565b60006144be600183613479565b91506144c982614488565b600182019050919050565b7f5d00000000000000000000000000000000000000000000000000000000000000600082015250565b600061450a600183613479565b9150614515826144d4565b600182019050919050565b600061452b82613fcb565b915061453682614017565b9150614542828c6136e4565b915061454d82614063565b9150614558826140d5565b915061456382614121565b915061456f828b6136e4565b915061457a82614063565b91506145858261416d565b915061459082613fcb565b915061459b826141b9565b91506145a682614205565b91506145b2828a6136e4565b91506145bd82614251565b91506145c88261429d565b91506145d382613fcb565b91506145de826142e9565b91506145e982614205565b91506145f582896136e4565b915061460082614251565b915061460b8261429d565b915061461682613fcb565b915061462182614335565b915061462c82614205565b915061463882886136e4565b915061464382614251565b915061464e8261429d565b915061465982613fcb565b915061466482614381565b915061466f82614205565b915061467b82876136e4565b915061468682614251565b91506146918261429d565b915061469c82613fcb565b91506146a7826143cd565b91506146b282614205565b91506146be82866136e4565b91506146c982614251565b91506146d48261429d565b91506146df82613fcb565b91506146ea82614419565b91506146f582614205565b915061470182856136e4565b915061470c82614251565b91506147178261429d565b915061472282613fcb565b915061472d82614465565b915061473882614205565b915061474482846136e4565b915061474f82614251565b915061475a826144b1565b9150614765826144fd565b9150614770826144b1565b91508190509a9950505050505050505050565b7f646174613a6170706c69636174696f6e2f6a736f6e3b6261736536342c000000600082015250565b60006147b9601d83613479565b91506147c482614783565b601d82019050919050565b60006147da826147ac565b91506147e682846136e4565b915081905092915050565b7f4552433732313a20696e76616c696420746f6b656e2049440000000000000000600082015250565b6000614827601883612c7e565b9150614832826147f1565b602082019050919050565b600060208201905081810360008301526148568161481a565b9050919050565b7f4552433732313a2061646472657373207a65726f206973206e6f74206120766160008201527f6c6964206f776e65720000000000000000000000000000000000000000000000602082015250565b60006148b9602983612c7e565b91506148c48261485d565b604082019050919050565b600060208201905081810360008301526148e8816148ac565b9050919050565b60006148fb82856136e4565b915061490782846136e4565b91508190509392505050565b7f4e487b7100000000000000000000000000000000000000000000000000000000600052601160045260246000fd5b600061494d82612d2e565b91507fffffffffffffffffffffffffffffffffffffffffffffffffffffffffffffffff8214156149805761497f614913565b5b600182019050919050565b7f4e487b7100000000000000000000000000000000000000000000000000000000600052601260045260246000fd5b60006149c582612d2e565b91506149d083612d2e565b9250826149e0576149df61498b565b5b828204905092915050565b60006149f682612d2e565b9150614a0183612d2e565b925082821015614a1457614a13614913565b5b828203905092915050565b6000614a2a82612d2e565b9150614a3583612d2e565b925082614a4557614a4461498b565b5b828206905092915050565b6000614a5b82612d2e565b9150614a6683612d2e565b9250827fffffffffffffffffffffffffffffffffffffffffffffffffffffffffffffffff03821115614a9b57614a9a614913565b5b828201905092915050565b7f4e487b7100000000000000000000000000000000000000000000000000000000600052603260045260246000fd5b6000614ae082612d2e565b9150614aeb83612d2e565b9250817fffffffffffffffffffffffffffffffffffffffffffffffffffffffffffffffff0483118215151615614b2457614b23614913565b5b828202905092915050565b7f45524337323155524953746f726167653a2055524920736574206f66206e6f6e60008201527f6578697374656e7420746f6b656e000000000000000000000000000000000000602082015250565b6000614b8b602e83612c7e565b9150614b9682614b2f565b604082019050919050565b60006020820190508181036000830152614bba81614b7e565b9050919050565b7f4552433732313a207472616e736665722066726f6d20696e636f72726563742060008201527f6f776e6572000000000000000000000000000000000000000000000000000000602082015250565b6000614c1d602583612c7e565b9150614c2882614bc1565b604082019050919050565b60006020820190508181036000830152614c4c81614c10565b9050919050565b7f4552433732313a207472616e7366657220746f20746865207a65726f2061646460008201527f7265737300000000000000000000000000000000000000000000000000000000602082015250565b6000614caf602483612c7e565b9150614cba82614c53565b604082019050919050565b60006020820190508181036000830152614cde81614ca2565b9050919050565b7f4552433732313a20617070726f766520746f2063616c6c657200000000000000600082015250565b6000614d1b601983612c7e565b9150614d2682614ce5565b602082019050919050565b60006020820190508181036000830152614d4a81614d0e565b9050919050565b7f4552433732313a207472616e7366657220746f206e6f6e20455243373231526560008201527f63656976657220696d706c656d656e7465720000000000000000000000000000602082015250565b6000614dad603283612c7e565b9150614db882614d51565b604082019050919050565b60006020820190508181036000830152614ddc81614da0565b9050919050565b60008160601b9050919050565b6000614dfb82614de3565b9050919050565b6000614e0d82614df0565b9050919050565b614e25614e2082612db1565b614e02565b82525050565b6000614e378284614e14565b60148201915081905092915050565b6000614e5182612d91565b9050919050565b6000614e6382614df0565b9050919050565b614e7b614e7682614e46565b614e58565b82525050565b6000614e8d8284614e6a565b60148201915081905092915050565b6000819050919050565b614eb7614eb282612d2e565b614e9c565b82525050565b6000614ec98284614ea6565b60208201915081905092915050565b600081519050919050565b600082825260208201905092915050565b6000614eff82614ed8565b614f098185614ee3565b9350614f19818560208601612c8f565b614f2281612cc2565b840191505092915050565b6000608082019050614f426000830187612dc3565b614f4f6020830186612dc3565b614f5c6040830185612ff0565b8181036060830152614f6e8184614ef4565b905095945050505050565b600081519050614f8881612be4565b92915050565b600060208284031215614fa457614fa3612bae565b5b6000614fb284828501614f79565b91505092915050565b7f4552433732313a206d696e7420746f20746865207a65726f2061646472657373600082015250565b6000614ff1602083612c7e565b9150614ffc82614fbb565b602082019050919050565b6000602082019050818103600083015261502081614fe4565b9050919050565b7f4552433732313a20746f6b656e20616c7265616479206d696e74656400000000600082015250565b600061505d601c83612c7e565b915061506882615027565b602082019050919050565b6000602082019050818103600083015261508c81615050565b9050919050565b600061509f82846136e4565b91508190509291505056fe4142434445464748494a4b4c4d4e4f505152535455565758595a6162636465666768696a6b6c6d6e6f707172737475767778797a303132333435363738392b2fa26469706673582212204b957593f94eb8b5f984a8b260e826d92b2b88fa11f69c396ac375879007c5c964736f6c63430008090033",
  "linkReferences": {},
  "deployedLinkReferences": {}
}